:100000000C943A290C9462290C9462290C9462296C
:100010000C9462290C9462290C9462290C94132D7F
:100020000C9462290C9462290C9462290C94622924
:100030000C9462290C9462290C9462290C94622914
:100040000C94C92C0C9462290C9462290C9462299A
:100050000C9462290C9462290C9462290C946229F4
:100060000C9462290C946229485052534231C35A6D
:1000700002001014101010101010000000000000FA
:100080000000010101010000000001010101000068
:100090000000515151515151515100000000515136
:1000A0005151010101110011001100000000000078
:1000B000000029A594524A29A594524A29A5945290
:1000C0004A29A594524A29A594524A29A594524AEC
:1000D00029A594524A29A594524A29A594524A29FD
:1000E000A594524A29A594524A29A594524A29A571
:1000F00094524A29A594524A29A594524A29A59472
:10010000524A6BADB5D65A6BADB5D65A6BADB5D6B6
:100110005A6BADB5D65AA594524A29A594524A298C
:10012000A594524A29A594524A296BADB5D65A6B6B
:10013000ADB5D65A6BADB5D65A6BADB5D65AA594FA
:10014000524A29A594524A29A594524A29A5945263
:100150004A291014101010101010000000000000A8
:100160000000010101010000000001010101000087
:100170000000515151515151515100000000515155
:100180005151010101110011001100000000000097
:10019000000029A594524A29A594524A29A59452AF
:1001A0004A29A594524A29A594524A29A594524A0B
:1001B00029A594524A29A594524A29A594524A291C
:1001C000A594524A29A594524A29A594524A29A590
:1001D00094524A29A594524A29A594524A29A59491
:1001E000524A6BADB5D65A6BADB5D65A6BADB5D6D6
:1001F0005A6BADB5D65AA594524A29A594524A29AC
:10020000A594524A29A594524A296BADB5D65A6B8A
:10021000ADB5D65A6BADB5D65A6BADB5D65AA59419
:10022000524A29A594524A29A594524A29A5945282
:100230004A291014101010101010000000000000C7
:1002400000000101010100000000010101010000A6
:100250000000515151515151515100000000515174
:1002600051510101011100110011000000000000B6
:10027000000029A594524A29A594524A29A59452CE
:100280004A29A594524A29A594524A29A594524A2A
:1002900029A594524A29A594524A29A594524A293B
:1002A000A594524A29A594524A29A594524A29A5AF
:1002B00094524A29A594524A29A594524A29A594B0
:1002C000524A6BADB5D65A6BADB5D65A6BADB5D6F5
:1002D0005A6BADB5D65AA594524A29A594524A29CB
:1002E000A594524A29A594524A296BADB5D65A6BAA
:1002F000ADB5D65A6BADB5D65A6BADB5D65AA59439
:10030000524A29A594524A29A594524A29A59452A1
:100310004A291014101010101010000000000000E6
:1003200000000101010100000000010101010000C5
:100330000000515151515151515100000000515193
:1003400051510101011100110011000000000000D5
:10035000000029A594524A29A594524A29A59452ED
:100360004A29A594524A29A594524A29A594524A49
:1003700029A594524A29A594524A29A594524A295A
:10038000A594524A29A594524A29A594524A29A5CE
:1003900094524A29A594524A29A594524A29A594CF
:1003A000524A6BADB5D65A6BADB5D65A6BADB5D614
:1003B0005A6BADB5D65AA594524A29A594524A29EA
:1003C000A594524A29A594524A296BADB5D65A6BC9
:1003D000ADB5D65A6BADB5D65A6BADB5D65AA59458
:1003E000524A29A594524A29A594524A29A59452C1
:1003F0004A29484E534231A55A3C180070168816B7
:100400004D0BD521A9147E36A7177F7F7F7F7F7F75
:100410007F7F7F7F7F7F7F7F7F7F7E7E7E7E7E7EF2
:100420007E7E7E7E7E7E7E7E7E7E7E7E7E7E7E7EEC
:100430007E7D7D7D7D7D7D7D7D7D7D7D7D7D7D7DEB
:100440007D7D7D7D7D7D7C7C7C7C7C7C7C7C7C7CE6
:100450007C7C7C7C7C7C7C7C7C7B7B7B7B7B7B7BE3
:100460007B7B7B7B7B7B7B7B7B7B7A7A7A7A7A7AE2
:100470007A7A7A7A7A7A7A7A7A7A7A7A79797979E0
:1004800079797979797979797979797979797979DC
:1004900079787878787878787878787878787878DB
:1004A00078787878787878787878787878787878CC
:1004B00078777877777777777777777777777777CA
:1004C000777777777877787778777A7C7D7D7F7F95
:1004D000808181818082868B91989EA5B5E6FFF808
:1004E000E6E4F0F0E9E4E4E4E0DCD9D8D8D4D1CC17
:1004F000C7C2C0BEBDBAB8B6B3AEA8A099938E8825
:10050000827B746E67615C57524F4B47433F3A356D
:100510003232312F2D2D2C2B2A2B2A2A2A29292A17
:100520002D2F30323436373A3D3D3F414244474A21
:100530004D5055595D6063686C7075797D81848913
:100540008F959BA2A6ABB0B6BABFC2C3C4C4C5C682
:10055000C8C9C9C9C9CACACBCBCACBCAC7C6C5C410
:10056000C2BFBCBABABAB9B7B4B1AEACA9A5A19B67
:1005700097948E88827E7975716B6764605E5B5834
:100580005653504F4C4A4744403E3C393738393730
:100590003636363535343332323435363738373708
:1005A000383B3C3C3D3E3F3F404142424447484946
:1005B0004A4C4F515254595C606265686B6F727659
:1005C000787B7F828487898B8D9093969A9EA2A553
:1005D000A8ABAFB2B6BABCBFC1C4C7C9CCCECFD02E
:1005E000D1D2D2D2D1D1D1D2D3D2D2D3D3D3D3D4E8
:1005F000D5D5D5D4D2D0CDCCCBC9C8C7C6C4C2C03E
:10060000BFBEBCBBB9B9B7B5B3B1AEACA9A6A29FCA
:100610009C9995928F8C8885827F7C797674716E97
:100620006C696764625F5D5B58565452504E4C4B28
:10063000494746444341403F3E3D3C3B3A393938C7
:10064000373737363636363636363737373838393D
:10065000393A3A3B3B3C3C3D3E3E3F4040414242C2
:100660004344444546474748494A4B4C4D4F5051F7
:1006700053545657595A5C5E6061636567696B6D88
:100680006F71737577797B7D7F81838587898B8D8A
:100690008F91939597999B9EA0A2A4A6A8AAACAE71
:1006A000B0B3B4B6B8BABCBEBFC1C2C4C5C6C8C96F
:1006B000CACBCCCCCDCECECFCFD0D0D0D1D1D1D152
:1006C000D1D1D1D1D0D0D0D0CFCFCECECDCDCCCC3A
:1006D000CBCACAC9C8C7C7C6C5C4C3C2C1C0BFBECA
:1006E000BDBCBBB9B8B7B6B5B3B2B1AFAEACABA9D0
:1006F000A8A6A4A3A19F9D9C9A989694918F8D8B58
:1007000089878482807E7C7A777573716F6D6B695F
:1007100067666462605F5D5C5A5957565453515026
:100720004F4E4C4B4A4947464544434241403F3E69
:100730003D3C3B3A39393837373636353535343440
:100740003434343434343434343435353535363661
:10075000363637373738383939393A3A3B3B3C3C0B
:100760003D3D3E3E3F3F4041414242434445454678
:10077000474748494A4A4B4C4D4D4E4F50515152B4
:1007800053545556565758595A5B5C5D5E5F6062CC
:100790006364656668696A6C6D6E70717374757791
:1007A000787A7B7D7E808183848687888A8B8D8E14
:1007B00090919294959698999B9C9D9EA0A1A2A49D
:1007C000A5A6A8A9AAACADAEB0B1B2B4B5B6B7B93A
:1007D000BABBBCBEBFC0C1C2C3C4C5C6C7C8C9CAF4
:1007E000CACBCCCCCDCDCECECECECFCFCFCFCFCF30
:1007F000CFCFCFCFCFCECECECECECDCDCDCDCCCC1C
:10080000CCCCCBCBCBCACACAC9C9C8C8C8C7C6C654
:10081000C5C5C4C3C3C2C1C0C0BFBEBDBCBBBBBADB
:10082000B9B8B7B6B5B4B3B2B1B0AFAFAEADACABAB
:10083000AAA9A8A7A6A5A4A3A2A1A09E9D9C9B9996
:100840009897959492918F8E8C8B898786848381DB
:100850007F7E7C7B797776747371706E6D6C6A695C
:10086000686665646261605F5E5D5B5A59585756A1
:100870005554535251504F4E4D4C4B4B4A4948479B
:1008800046464544444342424140403F3E3E3D3D52
:100890003C3C3B3B3B3A3A393939393838383838BF
:1008A0003838383838383838383838393939393AC2
:1008B0003A3A3B3B3B3C3C3C3D3D3D3E3E3E3F3F70
:1008C0003F40404041414142424343434444454507
:1008D000464647474849494A4A4B4B4C4D4D4E4F77
:1008E0004F505051525253545455555657575858CB
:1008F000595A5A5B5C5C5D5E5F5F60616262636413
:1009000065666768696A6B6C6D6E6F70717273741F
:10091000757677797A7B7C7D7E7F818283848586FC
:100920008788898B8C8D8E8F9091929394959798D0
:10093000999A9B9C9D9E9FA0A1A2A3A4A5A6A7A8AF
:10094000A9AAABACADAEAFB0B1B2B3B4B5B6B7B89F
:10095000B9BABBBBBCBDBEBFC0C0C1C2C3C3C4C5A6
:10096000C5C6C6C7C7C8C8C9C9C9C9CACACACACA02
:10097000CACACACACACAC9C9C9C9C9C8C8C8C8C7E7
:10098000C7C7C6C6C6C5C5C5C4C4C4C3C3C3C2C21F
:10099000C2C1C1C0C0BFBFBFBEBEBDBCBCBBBBBA75
:1009A000B9B9B8B7B7B6B5B4B4B3B2B1B0B0AFAE09
:1009B000ADACABABAAA9A8A7A7A6A5A4A3A3A2A1C7
:1009C000A09F9E9E9D9C9B9A999897969594939292
:1009D00091908F8E8D8B8A89888685848381807F94
:1009E0007D7C7B79787776747372706F6E6D6C6BCB
:1009F000696867666564636261605F5E5D5C5B5ADF
:100A000059595857565555545352525150504F4EAC
:100A10004E4D4C4C4B4B4A4A49494848474746463D
:100A20004645454444444343434242424241414196
:100A300041414040404040404040404040404041B3
:100A4000414141414242424243434344444545457A
:100A5000464646474748484849494A4A4A4B4B4C0C
:100A60004C4C4D4D4E4E4E4F4F5050515151525295
:100A7000535354545555565657585859595A5A5B0A
:100A80005B5C5C5D5E5E5F5F606061616262636370
:100A900064646565666767686869696A6A6B6C6CD7
:100AA0006D6D6E6F6F707172727374747576777727
:100AB00078797A7B7B7C7D7E7F8080818283848451
:100AC0008586878888898A8B8C8C8D8E8F8F909174
:100AD00092929394959596979898999A9A9B9C9DA3
:100AE0009D9E9F9FA0A1A1A2A3A3A4A5A5A6A7A7E1
:100AF000A8A9A9AAABABACADADAEAEAFB0B0B1B129
:100B0000B2B2B3B3B4B4B5B5B6B6B6B7B7B7B8B892
:100B1000B8B8B8B9B9B9B9B9B9B9B9B9B9B8B8B84B
:100B2000B8B8B8B7B7B7B7B7B6B6B6B6B5B5B5B45F
:100B3000B4B4B4B3B3B3B3B2B2B2B1B1B1B0B0B094
:100B4000B0AFAFAEAEAEADADADACACABABAAAAA9DB
:100B5000A9A8A8A7A7A6A5A5A4A4A3A2A2A1A1A04D
:100B6000A09F9E9E9D9D9C9B9B9A9A9998989797D3
:100B700096969594949392929190908F8E8D8D8C61
:100B80008B8A89888887868584838281807F7E7D21
:100B90007C7B7B7A79787776757473727170706FFD
:100BA0006E6D6C6C6B6A69696867666665646463C0
:100BB00062626161605F5F5E5E5D5D5C5C5B5A5A54
:100BC0005A595958585757575656555555545454BD
:100BD0005353535252525151515150505050504F03
:100BE0004F4F4F4F4F4F4F4F4F4F4F4F4F4F4F4F15
:100BF0004F4F4F4F4F4F50505050505151515152F5
:100C000052525253535353545454555555555656A6
:100C100056575757575858585959595A5A5A5B5B4B
:100C20005B5C5C5D5D5D5E5E5F5F5F6060616162DD
:100C3000626363636464656566666767676868695D
:100C4000696A6A6A6B6B6C6C6D6D6E6E6E6F6F70DD
:100C5000707171727273747475757676777878794D
:100C6000797A7B7B7C7D7D7E7F7F808081828283A1
:100C7000848485868687878889898A8A8B8C8C8DEF
:100C80008D8E8E8F9090919192929394949595964B
:100C9000969797989899999A9A9B9B9C9C9D9D9EB4
:100CA0009E9F9F9FA0A0A1A1A2A2A3A3A3A4A4A52D
:100CB000A5A5A6A6A7A7A7A8A8A8A8A9A9A9A9A9BC
:100CC000AAAAAAAAAAAAAAAAAAAAAAAAAAAAAAAA84
:100CD000AAAAA9A9A9A9A9A8A8A8A8A8A7A7A7A78F
:100CE000A6A6A6A6A6A5A5A5A5A4A4A4A4A3A3A3B9
:100CF000A3A3A2A2A2A1A1A1A1A0A0A09F9F9F9EE9
:100D00009E9E9D9D9C9C9C9B9B9A9A9A9999989833
:100D1000979797969695959494949393929292918F
:100D20009190908F8F8F8E8E8D8D8C8C8B8B8A8AED
:100D30008989888887868685858483838281818066
:100D40007F7F7E7D7D7C7B7B7A79797877777675FE
:100D5000757474737272717170706F6F6E6E6D6D89
:100D60006C6C6B6B6A6A69696968686767676666F5
:100D70006565656464646363636262626161616145
:100D8000606060605F5F5F5F5E5E5E5E5E5D5D5D7A
:100D90005D5D5D5C5C5C5C5C5C5C5C5C5C5C5C5C90
:100DA0005C5C5C5C5C5C5C5C5C5C5C5D5D5D5D5D7E
:100DB0005D5E5E5E5E5E5E5F5F5F5F5F6060606047
:100DC0006061616161616262626262636363636305
:100DD00064646465656565666666666767676868B6
:100DE00068696969696A6A6A6B6B6B6C6C6C6D6D5A
:100DF0006D6E6E6E6F6F6F6F7070707171717272F9
:100E0000727373747474757575767677777778788E
:100E100079797A7A7B7B7C7C7D7D7D7E7E7F7F800D
:100E20008081818282838384848585868686878784
:100E3000888889898A8A8A8B8B8C8C8D8D8D8E8E01
:100E40008F8F8F909091919192929293939494948A
:100E500095959596969797979898989999999A9A1B
:100E60009A9B9B9B9B9C9C9C9D9D9D9D9E9E9E9EBC
:100E70009E9E9F9F9F9F9F9F9F9F9F9F9F9F9F9F84
:100E80009F9F9F9F9F9F9F9E9E9E9E9E9E9E9D9D7D
:100E90009D9D9D9D9C9C9C9C9C9C9B9B9B9B9B9B94
:100EA0009A9A9A9A9A9A99999999999898989897B2
:100EB00097979796969696959595949494939393E1
:100EC000929292929191919090908F8F8F8E8E8E20
:100ED0008D8D8D8C8C8C8C8B8B8B8A8A8A89898862
:100EE00088888787868686858584848383828281B5
:100EF0008180807F7F7E7E7D7D7C7C7B7B7A7A7922
:100F00007979787877777676757574747473737386
:100F100072727171717070706F6F6F6E6E6E6D6DD9
:100F20006D6C6C6C6C6B6B6B6B6A6A6A6A69696915
:100F3000696868686868676767676767666666663E
:100F40006666656565656565656565656464646453
:100F5000646464646464646464656565656565654A
:100F60006565656566666666666666676767676720
:100F70006767686868686868686969696969696AEB
:100F80006A6A6A6A6A6B6B6B6B6B6C6C6C6C6D6DAE
:100F90006D6D6D6E6E6E6E6F6F6F6F707070707165
:100FA0007171717272727273737373747474747515
:100FB00075757676767677777778787878797979BF
:100FC0007A7A7A7B7B7C7C7C7D7D7D7E7E7E7F7F5A
:100FD00080808081818182828383838484848585EB
:100FE000858686868787878888888989898A8A8A84
:100FF0008B8B8B8C8C8C8C8D8D8D8E8E8E8E8F8F23
:101000008F909090909191919192929292939393CC
:101010009394949494949595959595969696969682
:101020009696979797979797979797979797979752
:101030009797979797979797979696969696969647
:10104000959595959595959494949494949393935C
:101050009393939392929292929291919191919172
:1010600090909090908F8F8F8F8E8E8E8E8E8D8D94
:101070008D8D8C8C8C8C8B8B8B8B8A8A8A8A8989C0
:1010800089898988888888878787878786868686EA
:10109000858585858484848483838382828281811B
:1010A000818080807F7F7F7E7E7E7D7D7D7C7C7C5D
:1010B0007B7B7B7A7A7A79797979787878777777A0
:1010C00077767676767575757574747474737373D4
:1010D00073737272727272717171717171707070FA
:1010E0007070706F6F6F6F6F6F6F6E6E6E6E6E6E13
:1010F0006E6E6E6D6D6D6D6D6D6D6D6D6D6D6D6D1D
:101100006D6D6C6C6C6C6C6C6C6C6C6D6D6D6D6D18
:101110006D6D6D6D6D6D6D6D6D6D6D6E6E6E6E6EFA
:101120006E6E6E6E6E6F6F6F6F6F6F6F6F6F6F70D3
:1011300070707070707070717171717171717272A4
:10114000727272727373737373737474747474746D
:101150007575757575757676767676777777777730
:1011600077787878787879797979797A7A7A7A7AF1
:101170007B7B7B7B7C7C7C7C7D7D7D7D7E7E7E7EA7
:101180007F7F7F7F80808080818181818282828257
:101190008383838384848484848585858586868609
:1011A00086868787878787888888888889898989C4
:1011B000898A8A8A8A8A8A8B8B8B8B8B8B8C8C8C84
:1011C0008C8C8C8D8D8D8D8D8D8E8E8E8E8E8E8E4B
:1011D0008E8E8F8F8F8F8F8F8F8F8F8F8F8F8F8F21
:1011E0008F8F8F8F8F8F8F8F8F8F8F8F8F8F8F8F0F
:1011F0008E8E8E8E8E8E8E8E8E8E8D8D8D8D8D8D15
:101200008D8D8D8D8D8C8C8C8C8C8C8C8C8C8C8C19
:101210008B8B8B8B8B8B8B8B8B8A8A8A8A8A8A8A25
:101220008989898989898988888888888888888837
:101230008787878787878786868686868686868548
:10124000858585858585848484848483838383835D
:10125000828282828281818181808080807F7F7F83
:101260007F7E7E7E7E7E7D7D7D7D7C7C7C7C7B7BAF
:101270007B7B7B7A7A7A7A7A7A79797979797878D4
:1012800078787878777777777777767676767676F0
:101290007675757575757575757474747474747404
:1012A0007474737373737373737373737272727210
:1012B000727272727272727272727272727272720E
:1012C00072727272727272727272727272727272FE
:1012D00072727272727272727272737373737373E8
:1012E00073737373737373737373747474747474C8
:1012F00074747474747475757575757575757576A3
:101300007676767676767677777777777777777873
:1013100078787878787878797979797979797A7A42
:101320007A7A7A7A7A7B7B7B7B7B7C7C7C7C7C7C0C
:101330007D7D7D7D7D7E7E7E7E7E7F7F7F7F7F80CB
:10134000808080808181818181818282828282838A
:10135000838383838384848484848485858585854D
:101360008585868686868686878787878787878816
:101370008888888888888889898989898989898AE3
:101380008A8A8A8A8A8A8A8A8A8B8B8B8B8B8B8BB6
:101390008B8B8B8B8B8B8B8B8B8B8B8B8B8B8B8B9D
:1013A0008B8B8B8B8B8B8B8A8A8A8A8A8A8A8A8A96
:1013B0008A8A8A8A8A8A8A8A898989898989898995
:1013C0008989898989898989898888888888888894
:1013D0008888888888878787878787878787878699
:1013E00086868686868686868685858585858585A4
:1013F00085858585848484848484848484838383AC
:1014000083838383828282828282818181818181BE
:1014100080808080807F7F7F7F7F7F7E7E7E7E7EDC
:101420007E7D7D7D7D7D7D7C7C7C7C7C7C7C7B7BF6
:101430007B7B7B7B7B7A7A7A7A7A7A7A7A7979790A
:101440007979797979797878787878787878787717
:101450007777777777777777777777767676767621
:10146000767676767676767676767676767675751E
:101470007575757575757575757575757676767618
:1014800076767676767676767676767676767676FC
:1014900076767676767676767777777777777777E4
:1014A00077777777777777777778787878787878C5
:1014B00078787878787879797979797979797979A2
:1014C00079797A7A7A7A7A7A7A7A7A7A7A7A7B7B7C
:1014D0007B7B7B7B7B7B7B7B7C7C7C7C7C7C7C7C54
:1014E0007D7D7D7D7D7D7D7D7E7E7E7E7E7E7E7E24
:1014F0007F7F7F7F7F7F7F7F8080808080808080F4
:1015000081818181818181818182828282828282C4
:101510008282838383838383838383838484848499
:101520008484848484848485858585858585858572
:10153000858585868686868686868686868686864E
:101540008686868686868686868787868686868639
:10155000868686868686868686868686868686862B
:101560008686868686868686868685858585858521
:10157000858585858585858585858585858585851B
:101580008585858484848484848484848484848418
:101590008484848383838383838383838383838318
:1015A0008383838383828282828282828282828216
:1015B000828282818181818181818181818180801A
:1015C000808080808080807F7F7F7F7F7F7F7F7E25
:1015D0007E7E7E7E7E7E7E7E7E7D7D7D7D7D7D7D32
:1015E0007D7D7D7D7D7C7C7C7C7C7C7C7C7C7C7C36
:1015F0007C7C7B7B7B7B7B7B7B7B7B7B7B7B7B7B39
:101600007B7B7B7A7A7A7A7A7A7A7A7A7A7A7A7A37
:101610007A7A7A7A7A7A7A7A7A7A7A7A7A7979792D
:1016200079797979797979797979797A7A7A7A7A25
:101630007A7A7A7A7A7A7A7A7A7A7A7A7A7A7A7A0A
:101640007A7A7A7A7A7A7A7A7A7A7A7A7A7A7A7AFA
:101650007B7B7B7B7B7B7B7B7B7B7B7B7B7B7B7BDA
:101660007B7B7B7B7B7C7C7C7C7C7C7C7C7C7C7CBF
:101670007C7C7C7C7C7C7C7C7D7D7D7D7D7D7D7DA2
:101680007D7D7D7D7D7D7D7D7D7D7E7E7E7E7E7E84
:101690007E7E7E7E7E7E7E7F7F7F7F7F7F7F7F7F61
:1016A0007F7F7F7F8080808080808080808080803E
:1016B000808081818181818181818181818181811C
:1016C00081828282828282828282828282828282FB
:1016D00082828282828383838383838383838383DF
:1016E00083838383838383838383838383838383CA
:1016F00084848484848484848484848484848383AC
:1017000083838383838383838383838383838383A9
:10171000838383838383838383838382828282829E
:101720008282828282828282828282828282828299
:101730008282828282828281818181818181818192
:10174000818181818181818181818181818180808B
:101750008080808080808080808080808080808089
:101760008080808080807F7F7F7F7F7F7F7F7F7F83
:101770007F7F7F7F7F7F7E7E7E7E7E7E7E7E7E7E83
:101780007E7E7E7E7D7D7D7D7D7D7D7D7D7D7D7D85
:101790007D7D7D7D7D7D7D7C7C7C7C7C7C7C7C7C82
:1017A0007C7C7C7C7C7C7C7C7C7C7C7C7C7C7C7C79
:1017B0007C7C7C7C7C7C7C7C7C7C7C7B7B7B7B7B6E
:1017C0007B7B7B7B7B7B7B7B7B7B7B7B7B7B7B7B69
:1017D0007B7B7B7B7B7B7B7B7B7B7C7C7C7C7C7C53
:1017E0007C7C7C7C7C7C7C7C7C7C7C7C7C7C7C7C39
:1017F0007C7C7C7C7C7C7C7C7C7D7D7D7D7D7D7D22
:101800007D7D7D7D7D7D7D7D7D7D7D7D7D7D7D7D08
:101810007D7D7D7D7D7E7E7E7E7E7E7E7E7E7E7EED
:101820007E7E7E7E7E7E7E7E7E7E7E7E7E7E7E7ED8
:101830007F7F7F7F7F7F7F7F7F7F7F7F7F7F7F7FB8
:101840007F7F7F7F7F7F7F7F7F80808080808080A1
:101850008080808080808080808080808080808088
:101860008181818181818181818181818181818168
:101870008181818181818181818181818181818158
:10188000818181818282828282828282828282823C
:101890008282828282828282828282828282828228
:1018A0008282828282828282828282828282828218
:1018B000828282828282828282828181818181810E
:1018C0008181818181818181818181818181818108
:1018D0008181818181808080808080808080808003
:1018E00080808080808080808080808080808080F8
:1018F0008080808080808080807F7F7F7F7F7F7FEF
:101900007F7F7F7F7F7F7F7F7F7F7F7F7F7F7F7FE7
:101910007F7F7F7F7F7F7F7F7F7F7F7F7F7F7F7FD7
:101920007F7F7F7F7E7E7E7E7E7E7E7E7E7E7E7ED3
:101930007E7E7E7E7E7E7E7E7E7E7E7E7E7E7E7EC7
:101940007E7E7D7D7D7D7D7D7D7D7D7D7D7D7D7DC5
:101950007D7D7D7D7D7D7D7D7D7D7D7D7D7D7D7DB7
:101960007D7D7D7D7D7D7D7D7D7D7D7D7D7D7D7DA7
:101970007D7D7D7D7D7D7D7D7D7D7D7D7D7D7D7D97
:101980007D7D7D7D7D7D7D7D7D7D7D7D7D7D7D7D87
:101990007D7D7D7D7E7E7E7E7E7E7E7E7E7E7E7E6B
:1019A0007E7E7E7E7E7E7E7E7E7E7E7E7E7E7E7E57
:1019B0007E7E7E7E7E7E7E7E7E7E7E7E7E7E7F7F45
:1019C0007F7F7F7F7F7F7F7F7F7F7F7F7F7F7F7F27
:1019D0007F7F7F7F7F7F7F7F7F7F7F7F7F7F7F7F17
:1019E0007F7F7F7F7F7F7F7F7F7F7F7F7F7F7F7F07
:1019F0007F7F7F7F7F7F7F7F7F7F7F7F7F808080F4
:101A000080808080808080808080808080808080D6
:101A100080808080808080808080808080808080C6
:101A200080808080808080808080808080808080B6
:101A300080808080808080808080808080808080A6
:101A40008080808080808080808080808080808096
:101A50008080808080808080808080808080808086
:101A60008080808080808080808080808080808076
:101A700080808080808080807F7F7E7E7F7F7F7A75
:101A80008877827B80817A817989797E7D7F7B8767
:101A90007A7B867682827C7F7E728489747E817E68
:101AA0007D718B6C94766A887E886A778195646D87
:101AB0008B9669667D89995D5F9E857077718E8052
:101AC000776D887C847A6D88846C8D82737668B13A
:101AD0007F6F6D689D89727E798F7F78758989683F
:101AE0009A63809E6B90876293947C6F7285A380CB
:101AF00066976484998A866383948082797A8D96C6
:101B00005A749C7790777393766EA5717092639AEE
:101B1000794B937D917E67978A6A66887968909001
:101B20007C7C568693648C8779716CA677707F7203
:101B3000927D797B7E7F8A7373946E79878C9564AE
:101B40008C8C6B6E84957180748D9D6D7B7F7B809A
:101B500088787E8469769F8B81846E706184989585
:101B6000726D8693735E8E91886F747E936C618ABA
:101B7000849090896B79797579799D7F56838B9262
:101B8000865A82959A5D5A938E8E6D888B73737682
:101B9000B86B7B9A54707FA3938166619BAB7E6127
:101BA00073978F8287787368979E7F5C849F788015
:101BB000828887865D92A971666F8E90808A726036
:101BC000987C988853757D9EA87850717E7A929102
:101BD000726F86779E645B9D6BAC80557781946B4A
:101BE0006E83947B676B9B9A7A736C776F92898311
:101BF000686F8D85936B7A87848E72747E948B6AFE
:101C000089837B827E816D7599A26D668B939D65BC
:101C100067A1868C6375998B7865A7876A808686AD
:101C20007E9783747F728F9173747D847B8888889C
:101C300088546FB4964F5A9B8A9A736693757575DC
:101C4000986F7D897E955A718485839077755C5BEA
:101C5000A0A490696A7C8E6F6494865E9B9B6B5790
:101C600076819D97628568928B596196B773647F80
:101C700079788F66818B899B51658C8E6F70849388
:101C8000A17C7368826A74968897507998805A6F9D
:101C9000B68775596B85A07D7F877675737769697F
:101CA0007DAA859B70736849B3AD505385919F821F
:101CB0006B4FA0AC7153579E8B8B6B828D7073767C
:101CC0006C98B0566A9074888C747459969E857519
:101CD00069859D71658F73856783879D8F5D778427
:101CE000946A7A6C88886A7B829F7D834E6EBF730C
:101CF00059928E767787874C8F767C845FB7657C28
:101D000095605D87B1745B748A648E6E868C7698FC
:101D1000596F7780869F7F585BA680628E64A1781A
:101D200069957D786C688C789A7E76993F8A9477ED
:101D30006E878E7984819A6482649A966D786392B4
:101D40007F987B7E91687597678CAC69746E8D8F78
:101D50007C7A6387A69160587BAD94766A6087AC85
:101D60009C5A697C7D89837D6C76958D81797A6EAC
:101D7000618473829E8F65669B6B7F7F876653A1AC
:101D80008793585CA88A75846F77957464856F789B
:101D9000AA6F626A7F9697686E9F8F9444568C985C
:101DA0008A695B66B6BB7F54777686856B877F854D
:101DB000834E659BB1835CA7688A834F6E86B1674B
:101DC0007D6D6CB197885C4A9D9B7066868F63863B
:101DD0008974899E817B72647C838473808F9C620A
:101DE0005083988F8E9D6A6F786E958F646F6F8029
:101DF000A6A6715E6680C384486F9F957D685D84EA
:101E00009B7465888DA272798B648771867A5D96E2
:101E10008683815E869D8A896F7C885083986479E9
:101E200079868488768A716FB17483635D797888E6
:101E30007893899A796485768D7E506694A2876AB4
:101E40006279868686897C6F8E67818C658B5870F7
:101E5000A89078667A9B816D997C726E6FAF7A716B
:101E600071678CA489767B61859EB3785D688C925E
:101E7000728F76827F9D97616E887B7A9B9A886548
:101E800078A092797B617A8D8E875F8DB1926C5844
:101E9000658D9E9F65768F887F57989C6E565B8D6B
:101EA000A2A08E5E6A907D87887A5B6788A4974C33
:101EB00065798996967D6285889D80435689A7823B
:101EC000788D877F5E6CA2AE7562678FAC676E6936
:101ED0008887819474778E917E89706E708B817300
:101EE0007B86888BB48E5F54778596777C71769EDF
:101EF00088866A8979709A87757E6473889A806704
:101F000073779F7F835E7988949E65726E9C8A5FEB
:101F100064828B7F6692AA79816D7073917D809ABD
:101F2000715D5793A690787A6466A47C69727F98F5
:101F30007F819F645080978D7F7E7371748C7090C9
:101F40008B978A534B73AC789C62799A6E717583C8
:101F50007B8C778E6A727E9A8D5F76876E6B9180AE
:101F60009A79746A808C75856F7E8D818F804970B7
:101F70007B809EA675516B8EA6747C766079838675
:101F8000757A908F8186715D6D88A39A766161699B
:101F90009EA87676797DA2896272687E86967B8419
:101FA0008D6798877475767A9990716C8C88788033
:101FB000807B77918BA55D68956A74848987858914
:101FC000815A8D8782786C8D876D7B9784745E785B
:101FD0008495717A928374688376837A7485707D30
:101FE0008E8B826466728E987B737F8C79707C8016
:101FF0008A6E6E8E83887B7A6F768B849174618F04
:102000009A6F7D78738582908B686F9388879467C9
:102010005D7C8F987579796D77919C8A81786B72E8
:1020200081857A81796A948C88696086968D7F6CC7
:102030006585948B6F8070757D9785767974957DB5
:102040007B617D8D91837789996758896F898C8BA6
:102050008A665C9C968673758D808070818A867393
:1020600087746F7F8792866D8A9160857A7F827E82
:102070007A7E817C9676707674988F6C7174918A72
:102080007A7A74788F976D657092897A7F7A767391
:102090009993676A7C927E6E967A5B83808A876E5C
:1020A0008F696791817D868383737585687A8E7C5D
:1020B0008385696E7E969D6B6E7886887D846C873D
:1020C00089738472717E8F8B7E7B848979707D8128
:1020D0008F907A7E7F856B7A96907678847D8088E3
:1020E0008F837585976C81798D91708180937373DF
:1020F0007D94937A8283796C8E8B80717A978472C7
:1021000073828A837F7F81847C78859080737285D7
:10211000867777778490878481778280707B8186C9
:102120008C77757C8C8B73798A7B83827292857FA6
:10213000817484847A807C7B838C9572727E828B9E
:10214000888072898A7C7078908C736C82868D8589
:1021500075838984707A897D7C7B867F8985737A93
:10216000848F7574868F886B75848A86777A7F8F63
:1021700087737A83867F7C7B918379847978799061
:102180008D85737994827C82827C8084857D838036
:1021900085887B7E757F8B89837D7F848187807630
:1021A0007A788A8D8B817082897F79798D8678772C
:1021B00080917F797D848E7F7A7D7F857C7B818510
:1021C000837D75808988847B7A7A7D798982848110
:1021D0008080767C8389807F7C847B7784857C7C0F
:1021E00080857C80808185767D7F87877F787389F5
:1021F0008780817C807E8384827F7F817E818B83C8
:102200007777859081787983838285858386837AC1
:102210007A7D86857F7F827F7D7E8189817E7F7BBF
:102220007E8282817E8081797C7D7F7E7E7D7E81C3
:10223000827A797C80857B7E797477808A837275D7
:102240007A7F807B7E777E7F8081777B7B7E7F7BC2
:102250007F7A757782887E7D7D7D7C7D7E787E80AD
:102260008380807B75777F88857E727982827F7A92
:102270008380767D7F817D78797D8380797B7D7F8A
:1022800082808373788581767485877E797B7D7D76
:102290007B7B7E87807A7F7F79777C7F7F7C808164
:1022A0007C7A7D7F80807D7B7C7E7B83827777805C
:1022B000837D78747F85877A78837D7D7981827D3F
:1022C000787A7D7B7B7E84837C767F867B757F813D
:1022D000817D7A7F817B777F817B798087817A7A24
:1022E0008182787B828480777982817A7D80827E08
:1022F0007A81837D7E84817779818180807F7E7DF4
:102300007E807E7E8282807F7B7D82818081807CD8
:102310007D82817C8083817E80808183827F7A7FC1
:102320008684807F7D8080838384807F83827F8199
:1023300082807F7D838482807D8180818184867C90
:102340007B8186817B7E83817E7E7E817D82827E93
:102350007D7B8083817B7D82817C777A83837D7A9C
:102360007D817F7A7B80817D7B7E7F807F797D7E92
:102370007D7D80827E7B787E83817D7C7E7F7F7D7C
:102380007F7F7E7B7E7E80807C7C8181817E7A7C6B
:102390008184827B7C7E7F7F7D81817E7D7F80804A
:1023A0007F7F7E7E807E7D7F827F7B7D837E7C7D46
:1023B0008083807D7C80807D7D80817F7D7C7F7F30
:1023C0007F817D7F817E7C7D81817F7D7D807F7F20
:1023D0007E7F7F7F7F7F817D7E7D7D7F81807E7F11
:1023E0007E7E7E807F7E7F807E7C7F7F80807E7F02
:1023F0007E7E7D7F7F7E7E80807E7C7B8080807FF6
:102400007D7E7D7C7C7E81807E7C7D7F7E7E7E80ED
:102410007E7D7E7E7D7E7F807E7C7D7E7E7E7F7EDD
:102420007E807F7C7C80807F7E7D7D7D7F807E7DC9
:102430007F807E7D7F7E7D7E7F7F7F7F7F7F7D80B3
:102440007F7E7E7F80807F7E807F7F80807E7E809B
:102450008080807F7F8081807F7F818180817F7F7E
:102460007F817F8081807F8080808081817F807F6D
:10247000808080807F7F807F807F7F8080807E7F64
:102480007F7F807F7F7E7E807F7F7E7E7F7E7E7F60
:102490007F7F7E7F7F7F7E7E7F7E7E7F7F7E7F7F52
:1024A0007F7D7D7F7F7F7E7F7F807F7E7F7F7E7E43
:1024B0007E7F7F7F7E7E7E7F807E7E7F7F7F7F7F31
:1024C0007F7E7E7E7F7F7F7E7E7F7E7E7E7E7F7E26
:1024D0007E7E7F7F7F7E7E7E7E7E7E7E7E7F7F7E17
:1024E0007E7E7E7E7E7E7E7E7E7E7E7E7F7E7E7E0B
:1024F0007E7E7E7E7E7E7F7E7E7E7F7F7E7E7E7EF9
:102500007E7E7E7E7F7F7E7E7E7F7E7E7E7E7E7EE8
:102510007E7E7E7E7F7F7E7E7F7E7E7E7F7F7E7ED6
:102520007E7E7E7E7E7E7E7E7E7F7E7E7E7E7E7ECA
:102530007E7E7E7E7E7E7E7E7E7E7E7E7E7E7E7EBB
:102540007E7E7E7E7E7E7E7E7E7E7E7E7E7E7E7EAB
:102550007E7E7E7E7E7E7E7E7E7E7E7E7E7E7E7E9B
:102560007E7E7E7E7E7E7E7E7E7E7E7E7E7E7E7E8B
:102570007E7E7E7E7E7E7E7E7E7E7E7E7E7E7E7E7B
:102580007E7E7E7E7E7E7F7F7E7E7F7E7F7E7E7E67
:102590007F7E7E7E7F7F7E7F7E7F7E7E7E7E7F7E55
:1025A0007E7F7E7E7E7E7E7E7E7E7E7E7E7E7E7E4A
:1025B0007E7E7E7E7E7E7E7E7E7E7E7E7E7E7E7E3B
:1025C0007F7E7F7E7E7E7E8283817E7E7F7E807E1A
:1025D000807F878D7F7377888D7F788189797E85ED
:1025E0009A8C9CAA97948E817B8A98A79E97989E96
:1025F000948E8CA7A89A98979595968E8D8B837EAE
:102600007D7A74716B5D574D443E36312A211C1C16
:102610001D1F2225272A2D2E32363B4247494D5475
:102620005B62676B7179828B949BA4ACB3B9C0C7B2
:10263000CED4DCE1E6E9ECECECEBEAE9E8E6E4E256
:10264000DED9D3CDC6C0B8B1A9A0968C82786E650C
:102650005C544B44403C393734322F2C2A262322F9
:10266000222325272A2D3133363A3E43484F565EE2
:10267000676F7981888F959BA0A5AAAFB4B8BCBFBE
:10268000BFC0C1C0C0BFBEBFBEBFC0BFBEBCB9B669
:10269000B3B0ADABA7A39E97918B847F7B78757207
:1026A0006F6B6763605C5B59575653504E4D4C4C93
:1026B0004E505255585A5D606265686C6F72767BF9
:1026C0007F8184858687878787888A8C8E8F919281
:1026D00093949596979796959492908E8D8B8989E1
:1026E0008786858382817E7D7C7C7C7C7D7E7F81EC
:1026F00082838485868788898A8B8B8D8D8D8E8D4C
:102700008D8D8D8D8D8D8C8A898684807E7C7B7865
:102710007674726F6C6A676462615F5E5D5D5F5F55
:10272000606162626261605F5E5E5F5F606264669C
:10273000696B6E7175797E85898E93979CA0A4A82C
:10274000ABAEB0B2B4B5B7B8B9B9B9B8B6B5B4B242
:10275000B0AEACAAA7A39F9C9893908C87827D78FB
:10276000726C67615B56514C4744403C3936353397
:102770003130303030313335393D42484F545B626F
:102780006970777F868C939AA0A6ABB0B4B8BBBEB5
:10279000C1C4C6C8CBCCCECFD1D1D0D0CFCCC9C587
:1027A000C0BBB5AEA8A19A938C847E77706B655E32
:1027B00058524C48423E3A3632302E2C2B2B2B2A84
:1027C0002B2C2D2E3133363A3E43484D53595F65FD
:1027D0006B71787F868E969EA5ABB2BAC1C6CBD000
:1027E000D4D6D8D9DBDADAD9D8D5D3D1CDC8C3BDC0
:1027F000B7B1ABA59F98928B857F78726C665F5955
:10280000534C46413B37322E2B29282928292A2C84
:102810002D3033373C41474D535960666D737A8094
:10282000878D93999EA3A7ABAFB2B6B8BBBEBFC20C
:10283000C3C4C4C4C4C3C3C2C1C0BEBCB8B4B1ADB8
:10284000A8A49E99948E88827C76716C67625D598B
:1028500055524F4D4B494847474748494A4A4B4DC7
:102860004E50525456585B5E6165686C7074787D4A
:1028700082868B90959A9EA1A4A7A9ABADADAEAE72
:10288000AEADACABA9A8A6A4A19F9D9A9894928E38
:102890008A8885827F7C7977747371706F6E6D6CB6
:1028A0006C6C6B6C6C6C6C6D6E6E6E6E6E6E6E6E58
:1028B0006F70717172737577787A7B7C7D7E7F80A3
:1028C0008081818181818180807F7E7D7E7D7D7D13
:1028D0007E7E7F7F808081818282838383838383E6
:1028E0008383828283838485868788898A8B8B8C85
:1028F0008B8C8C8C8C8C8C8B8B8A8A8A8A8B8B8B26
:102900008A8A8A898887858483807E7C7A777370B7
:102910006E6B686563615F5E5E5D5C5B5A5A5A5BB5
:102920005B5B5C5C5E6061626366696C6F72777B47
:102930008084888C9094989C9FA2A6A9ABADAFB0E0
:10294000B1B2B2B3B2B2B1B0AFACABA8A5A3A09DC7
:102950009996918C87827C77736E6A66625E5A570D
:1029600054514F4C4B4A4948484848484848494ABE
:102970004B4D4E515355595C60656A6F757B81872D
:102980008D93989EA2A7ABAFB2B5B8BABCBDC0C17B
:10299000C1C2C2C2C2C1BFBEBCBAB7B4B0ACA9A4A6
:1029A0009F99938D87807A746E68625C57524D4907
:1029B00045423F3C3A383737373737393B3D3F435D
:1029C000464A4F54585E64696F757B81868C929736
:1029D0009BA0A4A8ABAEB2B4B6B9BCBEBFC1C3C4C1
:1029E000C4C4C3C2C0BDBBB7B2AEA9A59F9B958FDF
:1029F0008A847E79746E6B66635F5C595754514F5D
:102A00004D4B4949474545454343444547484A4D51
:102A10005054575B5E63676C71767C80868B9094B4
:102A2000989CA0A5A7ABAEB0B3B5B5B6B8B7B7B6CE
:102A3000B5B3B1AEAAA8A4A19D9996928E8B8884B5
:102A4000817E7B7775716F6C696663605D5B5956DB
:102A5000555453535353545557595B5D60636669DE
:102A60006B6D707376787A7C7E80828385868889A8
:102A70008B8C8E8F90929393949596969798989826
:102A800098979695949291908E8D8C8B8A88878555
:102A9000848281807F7D7C7B79787776757474748D
:102AA00074747474747474757575767677777778D2
:102AB0007877787878797A7A7B7B7C7C7D7D7E7E6E
:102AC0007E7E7E7F7E7E7D7C7B7B7A7A797878784D
:102AD000787979797A7B7C7D7E7F8183848586880D
:102AE000898B8C8C8E8F90919293939495969697D8
:102AF0009796969695949291908E8C8A88878583E6
:102B0000807E7C79777572706E6C6A6967666563C2
:102B10006260605F5E5E5E5F5F5F606162646568A9
:102B20006A6D6F727477797C7E808386888B8E90D5
:102B30009395979A9C9EA0A2A5A6A8A8A9A9AAA980
:102B4000A9A9A8A7A6A4A2A09D9B9895918E8B87C2
:102B5000837F7B76726E6B66625F5B595554524F12
:102B60004E4D4C4C4B4B4C4C4D4F505255575A5D63
:102B70006063676B6F73777B8084888C9195999D78
:102B8000A1A5A8ABADAFB2B4B5B5B5B6B6B5B4B343
:102B9000B1AFADAAA7A4A09D9995918D89847F7BA3
:102BA00077736F6C6865625F5C59575553514F4E30
:102BB0004D4C4B4B4B4B4B4B4D4E505255585B5F16
:102BC00062666B6F74797E82878B8F94989C9FA2CC
:102BD000A5A8AAACAEAFB0B1B2B2B2B2B2B0AFAD0E
:102BE000ACAAA7A5A3A09C9995918D8985817D7993
:102BF00075716D6A6663605D5A58565453525251EE
:102C000051525253545657595C5E616467696C70F7
:102C10007376797C7F818487898B8E909395979941
:102C20009B9D9FA0A1A2A3A4A4A4A3A3A2A2A09F92
:102C30009D9A989694918F8C89868482807E7C79E7
:102C400078767572716F6E6D6C6A696867666564B7
:102C500064646566666768686B6C6D6F71737577C1
:102C6000787A7C7D7F818284858788898A8B8C8C29
:102C70008D8E8D8D8D8D8D8D8C8C8C8B8A8A8A8995
:102C800088878786868585858484838382828281FE
:102C9000807F7F7F7E7D7D7D7C7C7B7C7B7C7C7D63
:102CA0007D7D7E7E7E7F7F7E7E7D7D7C7B7A797959
:102CB00078777675757474747474747474747575C7
:102CC0007676767777777777787879797A7A7B7C82
:102CD0007C7D7E7F8082838484868788898A8B8CB2
:102CE0008D8E8F8F909192929293939394939393CE
:102CF00092908F8E8D8C8A88868482807D7C797874
:102D0000767472706F6E6C6A69686765656362611C
:102D100061616060606162636466686A6C6E717450
:102D200077797D7F8285888B8D90929496999B9CF4
:102D30009E9FA1A3A3A4A5A5A5A5A5A3A2A1A09E6E
:102D40009C9A9794928F8D898683807E7B78757309
:102D5000706D6A686664625F5D5C5A595757565673
:102D60005556565758595B5D5F6265686A6E717457
:102D7000787B7E8185888B8F9194979B9D9FA2A461
:102D8000A6A8A9AAABABACACABAAAAA8A7A4A2A0C0
:102D90009D9B9895928F8B8885817D7A76736F6DD8
:102DA000696763615E5D5A58575655555555565675
:102DB0005758595B5D5F616365686B6E70737579B9
:102DC0007B7F8285888A8E909496999B9D9FA1A3F4
:102DD000A4A5A5A6A6A6A5A4A3A2A09F9D9B9997DE
:102DE0009593908D8B888683817E7B797673706EC8
:102DF0006C6967666362605F5E5D5D5D5C5D5D5FC3
:102E00005F6061646567696B6D6F727476797B7EF4
:102E1000818385878A8C8D8F9192939596969698CB
:102E2000979898979797979595959392918F8E8D60
:102E30008B8A8887858382807E7C7B7977767574A0
:102E40007372717170707070707070717171727274
:102E500073737374747575757676777878797A7B11
:102E60007C7D7E7F8081828383848586868687873A
:102E700087878788878687868686858584848383F7
:102E80008383838383838383838382828282838217
:102E90008283838382828382828282828281818012
:102EA0008080807F7F7E7E7D7D7D7D7C7C7B7A794E
:102EB00078777776767574747272727171707170DA
:102EC000717171727374757678797A7C7D7E808287
:102ED0008384868788898B8C8D8E8F8F9091929238
:102EE0009293939393939392929191908F8D8C8BD5
:102EF0008988868482817F7D7B7A7876747371700D
:102F00006E6D6C6A69686867666565656565656547
:102F1000666768696A6C6E7071737577797B7E7F9E
:102F20008285878A8C8F90939597989A9B9D9E9F78
:102F30009FA0A1A0A09F9F9E9D9B9A989694918FE1
:102F40008D8A8784827F7D7A787472706E6B6967F0
:102F5000656361605F5D5D5D5C5C5D5D5E5F606182
:102F6000636566686A6D6F717476797B7D80838531
:102F7000888A8C8F91949697999A9C9D9E9FA0A1E8
:102F8000A1A1A1A09F9F9E9D9B99989694928F8EA0
:102F90008A888683817E7B797674716F6C6A6866B5
:102FA0006463615F5F5E5D5D5D5E5E5E5F61626327
:102FB0006567686B6D6F717476797A7D80838588BB
:102FC0008A8D8F9193949799999B9B9C9C9D9D9C96
:102FD0009C9B9B9A9898969593918F8D8C8A8886C6
:102FE0008382807D7C7A7876747371706F6D6C6C7F
:102FF0006B6B6A6A6A6A6A6A6A6B6C6C6C6D6D6E1E
:103000006F70717173747677787A7B7E7F81838439
:103010008687898A8B8D8D8E8F909090908F9090DF
:103020008F8F8E8E8E8C8C8C8B8A898887868584F8
:10303000838281807F7E7D7C7A7A797977777776D3
:10304000767575757575757576767677787878791D
:10305000797A7B7B7C7C7D7D7E7F7E7E7E7E7F7FA2
:103060007E7E7E7E7E7E7E7D7D7D7E7E7E7F7F7F80
:103070007F8081818181828282838384838484842E
:1030800084858485858585868686878686878686E7
:10309000878686858585848383828181807F7E7D06
:1030A0007C7C7B7B7B7A797978777676767574749D
:1030B00074747373737373737373737474747475D8
:1030C00076767778787A7B7C7D7E7F818283858631
:1030D00087888A8B8C8D8F8F909191929293939306
:1030E0009393929291908F8E8D8C8B8A8886848315
:1030F000817F7D7B7977767472706E6C6C6A69689B
:10310000686767676667666768696A6B6C6D6F702A
:1031100071737476787A7C7D7F82838587898A8CC7
:103120008D8F91929394959797979898989898984F
:1031300097979695949392908E8D8B8A88868381AB
:103140007F7D7B79777573716F6E6C6B696867666D
:1031500065656464636363646565666769696B6D0F
:103160006E70737476797C7E808285878A8C8E906F
:103170009293959798999A9A9B9B9B9B9B9A9998C7
:103180009896969492918E8D8B89878683817E7D89
:103190007B7877757472716F6E6D6B6A6A69686837
:1031A000686767686868696A6A6B6C6D6E6F717270
:1031B000747677797B7D7E8082838586888A8B8C06
:1031C0008E8E9090919293939393949493939292E2
:1031D0009190908F8E8D8B8A8988878483827F7E61
:1031E0007C7B7978767574737171706F6F6E6E6EAB
:1031F0006E6E6E6E6F6F70717172737475777779B2
:10320000797B7C7D7E7F80818282838485858686B2
:10321000878787888888888888898989888888872F
:103220008787868685858484838383828281808064
:103230007F7F7F7E7F7E7E7E7D7D7D7C7D7C7C7CB6
:103240007C7B7B7B7A7A7A7A7A7A7A797A797A7ADB
:103250007A7A7A7A7A7B7B7C7B7C7C7C7C7C7C7DBA
:103260007D7D7D7E7E7E7E7E7E7E7F7F7F7F808079
:10327000808080818181828282838383848485842B
:1032800085858586868687878787878787878787D7
:103290008686868685848483828281807F7E7D7B0C
:1032A0007A7A7978767675747373727272717170D6
:1032B00071717172727273747475767777797A7AC4
:1032C0007C7D7E7F80818384858688898A8B8C8DB6
:1032D0008D8E8F8F9090909090908F8F8F8E8D8D00
:1032E0008C8B8A89888685848382817F7E7D7B7AA8
:1032F00078777674747271706F6E6E6D6C6C6C6CC6
:103300006C6B6B6C6C6C6D6E6E6F707273747678C8
:103310007A7B7D7F81828487888A8B8D8F8F919243
:103320009393949595959596959494949392919062
:103330008F8E8D8B8988868583817F7D7C7A787658
:10334000747371706F6D6D6C6B6A6A696969696AB3
:103350006A6B6B6C6D6D6E70717273757678797B5C
:103360007C7E808282848587888A8B8C8D8E9090EB
:103370009192929293939393939392929190908E31
:103380008E8C8B898986858481807E7D7B7A787717
:103390007574737170706E6E6D6C6C6C6C6C6C6C43
:1033A0006D6E6E6F7070717374757678797A7C7DDE
:1033B0007E7F81828385868787898A8B8B8C8C8DA3
:1033C0008E8E8E8D8E8E8E8D8D8C8B8B8B8A89883A
:1033D0008786858484838180807F7E7D7C7B7B7AE9
:1033E0007979787877767676767675757575757578
:1033F00075757576767677777878797A7B7B7B7C4E
:103400007C7D7E7F808081818282838384848585A8
:10341000858585868686858686858585848484845B
:1034200084838383828281818181818080807F7F88
:10343000807E7F7E7F7F7E7E7E7E7E7E7E7E7E7EA7
:103440007E7E7E7E7D7E7D7D7D7C7C7C7C7B7B7BB1
:103450007B7B7A7A7A7A7A7A7A7A7A7A7A7A7A7BC9
:103460007B7B7B7B7C7C7C7D7D7D7E7F7F7F808189
:1034700081828383838484868686878787878788FB
:1034800088888888888887878786868685848483D5
:1034900083828180807F7F7E7D7C7C7A7A79787858
:1034A00078777776757574747373727372727273DA
:1034B0007373747475767777787A7B7C7D7E7F8082
:1034C0008183848585878889898A8B8C8D8D8D8E73
:1034D0008E8E8E8E8E8E8E8E8E8D8C8B8A8A898825
:1034E0008685848281807E7D7C7A79787676747315
:1034F000727171706F6F6E6E6E6E6E6F6E6F6F70D9
:103500007171727374757677787A7B7C7D7E808139
:103510008384858688898A8B8C8D8E8F8F8F9090FF
:10352000909190909090908F8E8D8D8B8A898887C6
:1035300086848382807F7D7C7B7A787776757472CF
:1035400072716F6F6E6E6D6E6D6D6D6E6E6F6F7092
:103550007171727475767778797B7C7E7E808183D9
:1035600084858787888A8B8C8C8D8D8E8F8F8F8FAB
:103570008F8F8E8E8E8D8D8C8B8A8A88878685859F
:103580008382817F7F7E7C7B7A7A78787776757587
:1035900074747373737272727272727373737474FD
:1035A0007476767777787A7A7B7C7D7D7E7F818171
:1035B00082838485868687888889898A8A898A8A97
:1035C000898A89898988888787868685858483838F
:1035D0008281807F7F7E7E7D7D7C7B7B7A7A7A791B
:1035E00079797979797978787979797979797A7A4B
:1035F0007A7A7A7B7B7B7C7C7C7D7D7D7D7E7F7E09
:103600007F7F7F7F808080818181818181818281B4
:103610008282828282828283838383828283828384
:103620008382828282828282828182818181808180
:103630008080808080807F7F7F7F7F7F7E7E7E7D99
:103640007E7E7D7D7C7C7C7C7C7B7B7B7A7B7A7ABE
:103650007A797A7A79797A7979797A7A7A7B7B7BCD
:103660007C7C7C7C7D7D7E7F7F808081828282836A
:1036700084848585858687878687888888898888E1
:1036800088878887878686868585848382828180ED
:103690007F7E7D7C7B7A7A79787877777676757598
:1036A00074747474747474747574747576767677CF
:1036B0007878797B7B7C7C7E7F8081818283848526
:1036C00086868888898A8A8B8B8C8C8C8C8C8C8C57
:1036D0008C8B8B8B8A898988878786848482828079
:1036E0007F7E7D7C7B7A797877767574747372725D
:1036F00072717071707171717171727373747576AA
:103700007777787A7C7C7D7F7F81828384858787C9
:1037100088898A8A8C8C8C8D8D8D8D8D8D8D8C8CED
:103720008C8C8B8A89888887878684838281807F36
:103730007E7D7C7B7A7A787877767675747473730D
:103740007272727272727272737374747576767743
:1037500078797A7B7B7C7E7F808181838485868675
:10376000878889898A8B8B8B8B8B8B8B8B8B8A8BB6
:103770008989898888878686858483828180807FFD
:103780007E7D7C7B7B7A79797877777676767675AD
:1037900075757575767676767778787979797A7BB6
:1037A0007B7B7C7D7D7E7F80808081818282828325
:1037B00084838484848585868586858685868686B9
:1037C00085858584848484848383838282818180C7
:1037D0007F7F7F7E7E7D7D7D7C7C7B7C7B7B7B7B1E
:1037E0007B7B7B7B7B7A7A7B7B7B7B7B7B7B7C7C29
:1037F0007C7C7C7D7D7D7D7D7E7E7E7F7F7F7F7FEF
:103800007F7F7F7F7F7F80808080808080808180BD
:103810008181818181818181818181818182828295
:10382000828382838382838383838382828382826F
:10383000828181808080807F7F7F7E7E7D7D7C7C99
:103840007C7B7B7B7A7A7A7A7979797A7A797A79D8
:103850007979797A7A7A7B7B7B7B7C7C7D7D7D7EB6
:103860007E7F7F808081818182828384848485853C
:1038700086868686868787878787878787878686DF
:1038800085858484848382828181807F7F7E7D7C24
:103890007C7B7B7A797878777776767575747575B1
:1038A000747574757576767677777879797A7B7CA6
:1038B0007D7D7E7F808182838485858686888889D8
:1038C00089898A8A8A8A8A8A8A8A8A8A8888888763
:1038D000868685848483828281807F7E7E7C7C7BD9
:1038E0007A79797878777676767575747474747475
:1038F000747474757576767677777879797A7A7C58
:103900007D7E7F7F81818283848585868788888983
:10391000898A898A8A8A8B8A8A8A8A89898988880F
:10392000878686858584828281807F7E7D7C7B7A86
:103930007A78787777767676757574757574757527
:103940007576767677787879797A7A7B7B7C7D7DE7
:103950007E7F80808181828283848485858586863E
:1039600086868787878787878786868686868585F2
:103970008484838382818281807F7F7F7E7D7D7D41
:103980007C7C7C7C7B7B7B7A7A7A7A7A7A7A7A7A8C
:103990007A7A7A7A7A7B7B7B7B7C7C7C7D7D7D7E70
:1039A0007E7F7F7F7F808081818181828281818211
:1039B00081828282828282828281828281818181ED
:1039C000818180808080807F8080807F7F7F7F7EFC
:1039D0007E7F7F7F7F7F7F7E7E7E7F7F7E7E7E7EFF
:1039E0007E7E7E7E7E7E7E7E7E7E7E7E7E7E7E7EF7
:1039F0007E7E7E7E7E7E7E7E7E7F7E7F7F7E7E7EE4
:103A00007F7F7F7F7F7F7F7F807F807F7F7F7F7FC4
:103A1000808080807F8080807F80807F807F7F80AB
:103A2000808080807F80807F80807F7F7F807F7F9D
:103A30007F7F7F7F7F7F7F7F7F7F7F7F7F7F7F7F96
:103A40007F7E7E7F7E7E7F7E7E7F7E7F7F7F7F7E8E
:103A50007F7F7F7F7E7F7F7F7F7F7F7F7F7F7F7F77
:103A60007F7F7F807F7F7F7F7F7F7F7F7F7F7F8064
:103A7000838485827F7F7B7C7A77797877777A7A7F
:103A8000777976807C707A79807C8086787C7E8677
:103A90007D7C8186888083868782848582818A7DF9
:103AA0007C8484847A856976897583837D767F8733
:103AB0007E7B8070757584865A7F8F8F4F4FB5B32C
:103AC00078517D6E5A58486A687A8576876E587341
:103AD0007F887D86A7B0937088A2C0A483ACC4C140
:103AE0009590B19691AB94726C8989655870755AAE
:103AF0004D4451604C3F4A506064555C675F5D7453
:103B00007673778C9B98B3AD9EAAABA4BDD0BDB0A5
:103B1000AEBBB39996978E8A8A7E7577786A616D07
:103B20005345473D464B534C4344525F4E4E606AAB
:103B3000706B748898A29195B1BFB3A3B8B9B9C698
:103B4000C1B5ACB0A59EA0918A8C847D75746A566F
:103B5000475254494445453D485250494E5D5A5D8F
:103B60006D747B7F828A96A4978F9EAEB7B1B6B6EE
:103B7000B7B9BBB0A5AA9E92949B907C787B6E6BE4
:103B8000655A4F545D52544E4D4A4E5651595D5DE3
:103B90005F67717C7B7A828A94989C989EAAB3A96D
:103BA000B0B4A3ABACA5999EA18A82908D817F759C
:103BB0006B71756C6260655E5B5E5B564D576360F2
:103BC000656C696971757A8384808893968E8B930E
:103BD0009A959C9F989E9B9E97929A968F88888E86
:103BE00086837E76787970686D69666D6F6E6A6DB2
:103BF0006A676A726F686C7074737981807D85887A
:103C000082848A8A8E9593908D8E8B8D9390908CE2
:103C10008A8C888E8B8180807F7B7B7975757872AA
:103C20006D6D6A68636C736B6C6E6E71727A7973AA
:103C300075767D7D7E85878A8A8C8E8E898C989D0F
:103C40009C9495938B92958E8784847F83817C79D5
:103C5000777671716F6A6667707069666665666CA3
:103C60006B6D707174788282808687868D95928D57
:103C7000909BA19D979291949594928E8D89858425
:103C8000827C78746F72736C6463676A6863606067
:103C90006569686A7277726E757E82828285898FA5
:103CA000959591939D9F9E98959A9B989293948AAF
:103CB0008381817F7B7670717570696666676665E2
:103CC0006263656769686A717571717780878787D4
:103CD000878C959695959495999A999995949191A3
:103CE000908E88818182837E767272726D6B686538
:103CF00065656768696A6B6A6C71747677797B7FD2
:103D0000838381848A8D90939290909498999893CC
:103D10008D8E92908A858280827F7A777575747491
:103D2000726F6B696B6E6F6C68666A6D71747474B8
:103D300074787E8080848A8A888B8F8F8C8D92960F
:103D400096928E8C8D91918D89868484827F7D7CE4
:103D500079747172736E6B6A6E726F68676C71736F
:103D600074747273787B7B7D82858481848A8E8E65
:103D70008D8E9397948F8C8E90908E8B8785838277
:103D800081817E7A7775767877716E6F72706965EA
:103D9000696E70717171717275797D7F81828384B2
:103DA000878D8E8C8B9092918F8F909394938D8A28
:103DB0008886868787837D7976777875716D6D6C57
:103DC0006C6B69696C6F70706E6E7073797C7B7AE6
:103DD0007C7E81878C8C8B8F929191949695959413
:103DE00093908C8A88878786837D7878797A7772B2
:103DF000706D6B6A6C6B6867676A6C6D6C6D7278FE
:103E00007B7B7A7C81868A8C8C8D8E8E8F92959628
:103E10009592919394928D8B8C8B87837F7C7A780B
:103E20007573706D6A68696B6C6A67686C70716EC7
:103E30006C70767A7B7B7B7E8385878B8C8C8F9571
:103E400098979695939293948F89888A8986828091
:103E50007D7A7877777572706E6C6B6B6965656A61
:103E60006F6F6D6C6F757A7C7C7C7F8285888B8CA4
:103E70008C8D8F929392908F929594908C8B8C8D49
:103E80008A85817E7C7976767673706D6C6C6C6BCE
:103E9000696B6E706F6E6E6F717578797A7B7D7FEE
:103EA00084898C8B898C90939291929596938F8C28
:103EB0008B8B8B898785827E7B7C7D7B7773706E15
:103EC0006E6D6C6B6A6969696A6B6C6F73777A7B0C
:103ED00078787E868A8987878A8E90929393939248
:103EE000929392908F90908E8A827D7C7F7F7A745D
:103EF000706F6E6C6C6D6D6B69696B6C6C6C6D70FA
:103F000073757473767D84878786888B8F93969874
:103F1000979492949694918E8D8F8D87817F8082D5
:103F2000817C767272716F6C6B6B686464676A6AAD
:103F3000696A6E737575777C818384858586898DC2
:103F400090949695929194979794919192908A8655
:103F50008382807D787371706F6F6F6E6B6765673A
:103F60006B6C6B6A6C6E6F717275777A7E81848709
:103F70008A8C8E92969794929395969694928F8D22
:103F80008C8B8884817F7F7E7B777370706F6C6889
:103F90006565686A6A69696A6C6E727678787B7F33
:103FA0008385878787898D91939292949697979529
:103FB00092908F8F8E8B86817F7F7E7B75706E6FE8
:103FC0006F6E6C6A686A6B6B6A69696C6F72747524
:103FD00075777B80848585878B9093959493949552
:103FE00095939291908F8E8D8A87838080817E7940
:103FF00074717272706D6867666769696A6B6D6EFD
:1040000071737576777C8285858384878C90919196
:104010009192939294969694918F8E8C88848282BA
:10402000817D7872707172716F6C6A68686B6E6E88
:104030006C6A6A6D717273757A7F81818183888EF3
:1040400093949492929293959594908D8C8D8C8963
:10405000878685837E7A77757574726F6B67656600
:10406000696C6C69686A6E73757677797D7F80811B
:1040700084888B8E90908F8E91969897969491903D
:10408000908F8B8784827F7C7A78767471706E6C67
:1040900069686B6D6D6C6968696C6F717375777A3F
:1040A0007D818486888B8E91929291929697969339
:1040B000908F8F8F8E8B88868481807E7B777371C3
:1040C000706F6B6968696A6A6A68686A6E7174772A
:1040D0007979797C81848585868B9092908F919473
:1040E000969593919091908F8D898482807F7C7A30
:1040F00076727272716E6C6B6B6C6C6C6C6B6D6EDD
:104100006F71727374777C80848585878B8F9190B3
:104110008F8F91929392908F8E8E8E8C88858584CE
:1041200082807D79767575736F6B6B6B6C6B6B6C66
:104130006C6D6D6F717476787B7D7F8081828488F1
:104140008C8D8D8D8F909294959592908F908F8B72
:10415000878483817E7B7876767674716F6D6D6DE2
:104160006E6E6D6C6B6B6D7072747475787B7D8028
:1041700083878A8C8D8E8E8F8F919394928F8D8D65
:104180008F8F8D8986848381807E7B797673716D34
:104190006A696A6D6E6C6A696A6F7274757677792E
:1041A0007B7F8183848586898B8D8F909295959373
:1041B0008F8E9092918D89858281807F7D7A7674B1
:1041C0007372716F6E6F6F6F6D6A696B6F727372FE
:1041D0007374767A7F81838486898B8D8E9091919A
:1041E0009191908E8D8E8F8F8D8986848382817F31
:1041F0007C78757473716E6C6C6B6B6B6A6B6D70C5
:104200007373737476787B7F8182828386898C8DC9
:104210008E8F90919191919191908F8D89868483C9
:1042200081807E7B7774747473716F6E6F6E6D6D49
:104230006D6D6D6F7071737476797D808181838708
:104240008B8D8E8E8E8F9091908F8F8E8E8D8C8B8E
:104250008886848584817D7A78777674716E6C6BBC
:104260006D6D6D6C6C6D6F7374757676787C7F7F19
:104270007E818488898A8B8C8E8F91929190909088
:10428000908F8C89858383827F7C7A79787674722B
:1042900071707070706F6E6C6C6E7071727272761D
:1042A0007B7E7F80828487888A8B8D8F8F8F8F8F94
:1042B0008D8B8D8F8F8D8A8786868683807D7A7899
:1042C00076747372706F6E6E6E6C6C6E71737474E4
:1042D0007475777A7C7D7F7F808286898B8B8C8DCD
:1042E0008F90908E8E9091908C8987858584838025
:1042F0007D7A7878787775737170706F6E6E6E6F87
:104300006F7070717274787B7E7F7F8183878A8BF8
:104310008B8B8C8D8E8E8E8E8E8E8E8C8B888787DF
:104320008887837E7B7A79787673706F6F6E6E6E16
:104330006F706F707172737476797C7D7D7C7D8017
:104340008488898A8A8B8D8E9090908F8F8F8D8BA9
:104350008988868584817D7B7A7B7A797674717190
:104360007171706F6E6E6F6F6F70727477797B7C26
:104370007E7F8286898A8989898B8D8E8E8D8C8CB1
:104380008D8D8C8B8988878684817E7C7B7A7874FE
:10439000716F6F7170706F6F6F7071737474757708
:1043A000797B7C7D7E8082848687888A8D8F9090C1
:1043B0008E8D8D8E8E8C8A8785858482807E7B7B98
:1043C0007A79777675747473726F6E6E6F717272BC
:1043D000727376797A7C7D7F808385878889898AE4
:1043E0008A8B8B8B8B8C8D8D8C8A89888787868333
:1043F000807E7D7B7A787673727171717170717263
:1044000073737373747577797A7A7B7C7F82858610
:104410008687898B8C8E8E8E8D8D8D8B8A898787F2
:10442000868583817F7D7D7C7B79757473747472DE
:10443000716F6F70707171727477797A7B7C7D7F28
:10444000838686868687898B8C8B8B8B8B8C8C8BDB
:104450008B8A8988878582807E7E7D7B7875727263
:104460007373737271717172737474757576787811
:10447000797A7E818383838486898C8D8D8D8C8CE3
:104480008D8D8C8B8A88868584828180807F7C79E3
:1044900077767676757472706F6F707172727273F0
:1044A0007577797B7C7F818384838486898B8B8BF2
:1044B0008A8A8B8C8D8D8D8B8A8989888584827F71
:1044C0007D7B7976757575747371707071727474A3
:1044D00074737375777878797B7D8082838486881E
:1044E0008A8C8C8C8B8C8D8E8D8C8987878786842B
:1044F0008281807F7E7C7A79777675747371707033
:104500007171717171727477797A7B7C7E8182832B
:10451000848485878A8A8A8A8A8C8D8D8C8A8A8A05
:104520008A88878482807F7D7B7A787675757574BA
:104530007271727373737373747576777879797B2C
:104540007E8081838486888A8B8B8B8B8B8C8C8BF3
:104550008A898888878583818080807E7C7A797843
:10456000777675737271717272727273747577780F
:10457000797B7D7F81818283848587898989898907
:104580008B8C8C8B8A8989898886848382807E7BC8
:1045900079787777767574727273747473737373D2
:1045A00074767778797A7B7D7E80818486888A8A22
:1045B0008A8A8B8C8D8D8C8A898888878684828173
:1045C000807F7D7C7B7A797876737170717272717D
:1045D000717172747678797A7B7C7E808182848531
:1045E00086878788888A8B8D8D8C8B8A898A898833
:1045F000868381807E7D7B7978767574737373731F
:104600007474737272737476777778787A7C7F803B
:1046100082848586888A8A8B8C8C8C8C8B8988880E
:1046200089888785838181807F7E7C7A787776759B
:104630007372717172727171727476787878797B35
:104640007E80818282838586888889898A8B8C8C0A
:104650008B8B8A8B8A8886838281807F7D7B797829
:104660007777767473737474747373737475767701
:104670007777797C7E7F80818385878889898A8B1B
:104680008C8C8B8A89898988878685848282817FC0
:104690007D7B7A79787675737272727271717273CA
:1046A00074767778797A7C7E7F808182848687872A
:1046B0008888898B8B8C8B8B8A8A8A89888684826E
:1046C000817F7E7C7A79787776757473737474746D
:1046D000737373747577777777797C7E8081838441
:1046E000868788898A8A8B8C8B8B8988888888873B
:1046F0008583828281807F7D7B7A787775747373FE
:104700007373727171727476777878797B7D7F803C
:104710008081818385868788898A8B8B8B8A8A8A28
:104720008B8B8986848382817F7E7C7A7878787788
:10473000767575747473737373747575757677792C
:104740007B7D7F8081828486888989898A8A8A8A1A
:10475000898989898987868483838281807E7B7A1F
:1047600079787775747373727272737474757677FF
:1047700078797A7C7E7F8080818284868787888929
:10478000898A8A8B8B8A8989888685838282817FC0
:104790007C7A7979797877757574747474747474B3
:1047A0007475767778797B7C7E7F80818385878836
:1047B000888888898A8A8A89888888878685848380
:1047C0008281807E7C7B7A7A78767473737373735C
:1047D00073737475767778797A7B7D7E7F8081823A
:1047E000838585868687888A8A8B8A89898989874D
:1047F00085848382807F7E7C7A79797877767676F5
:10480000767675747474757576767778797B7D7E37
:104810008080828385878788888989898888888736
:10482000878787868483838382807E7C7B7A7A787D
:104830007776757474747474747576777878797A19
:104840007C7D7E7E7F808183858686878788898A36
:104850008A8A8A8989878684838282807F7D7C7B1D
:104860007A7A7978777675757676757475757676E1
:104870007778797B7D7E7E7F818284868787878734
:1048800088888988888887878685858484838280CC
:104890007F7D7C7B7A79787675747575757574759E
:1048A00076777778797B7B7C7D7E7E7F808384853D
:1048B000858586878889898988888887868684838C
:1048C00082807F7E7D7C7B7B7A7977767676777740
:1048D0007676757576777878797A7B7C7E7F80813D
:1048E0008385858585868788888887878686868666
:1048F000858483838281807F7E7D7B7A78777676DC
:104900007676767575757577787979797A7B7D7D28
:104910007E7F808182838484858687888888888852
:104920008888878684838281807F7E7D7C7B7A7A7B
:104930007978787777777675757576777777787908
:104940007A7B7D7E7F808283848585858686878746
:10495000878787878686868484838382817F7E7D1E
:104960007C7B7978777676767676767676777878D1
:10497000797A7A7B7C7D7E7E7F8081828384848548
:1049800086878888878786868685848382828180D9
:104990007F7D7D7C7C7B7A7978787878777776767E
:1049A0007677777879797A7B7C7D7E7F8182838444
:1049B00084848585868787868586868686858483A2
:1049C000838281807F7E7D7D7C7A78787777777728
:1049D0007676767778787979797A7B7C7D7D7F7F3A
:1049E0008081828283848586878787878787878679
:1049F000858483828281807F7E7D7C7B7A797979D0
:104A0000797978777676767778787878797A7B7D21
:104A10007E7E7F8081828384858586868585858567
:104A200086868685848483838382817F7E7D7C7B6A
:104A30007A79797878777776777778797979797AF2
:104A40007B7C7C7D7D7D7E80818283838485868660
:104A500086868787878785848382828281807F7E1E
:104A60007D7D7C7C7B7A79797978777777777778B1
:104A70007778787A7B7C7D7D7E7F8081828383835B
:104A800084858585858585868685858484848483DB
:104A900081807F7E7D7C7B7A7A7979787878777768
:104AA0007879797979797A7B7B7C7C7C7D7E808052
:104AB00081828384848585858686868685858484AF
:104AC00083828281807F7F7E7E7D7C7B7B7A7A7908
:104AD00078777777777778787879797A7B7C7D7E45
:104AE0007F8081818282838485858585858686868F
:104AF0008585848484838382817F7E7D7C7B7A7AB2
:104B00007A7978787877787879797979797A7B7B16
:104B10007C7C7D7D7E7F8081828384858585858682
:104B20008687868584838383838281807F7F7E7E60
:104B30007D7D7C7B7A7979787878787777777778E4
:104B4000797A7B7C7C7D7E7F808182828282838376
:104B50008484858686868585848485858483818012
:104B60007F7F7D7C7B7A7A797978787878787878A5
:104B7000787879797A7A7B7B7B7C7D7F8081818272
:104B800083848586868686868685848484848483D9
:104B9000828180807F7F7E7D7C7B7B7A7A7978784A
:104BA000777777777778797A7A7A7B7C7D7E808061
:104BB00081818182838384848585858686868585B7
:104BC00085858483828180807F7E7C7B7A7A7A79F6
:104BD0007978787878787878787979797A7A7B7C46
:104BE0007D7E7F7F8081828384858586868686869A
:104BF00086858584848382828181807F7E7D7D7CA1
:104C00007B7B7A7979787777777777777879797A1C
:104C10007B7C7D7D7E7F808181828283848484858C
:104C200085858686868585858584838281807F7E4D
:104C30007D7C7B7B7A7A79797878787979787879DC
:104C400079797A7A7A7B7C7D7E7F80808182838489
:104C50008585868686868685848484848382818110
:104C60008180807F7E7D7C7B7B7A7978787777778F
:104C700077777878797A7A7A7B7C7E7F7F7F80807D
:104C800081828383848485858585858686868584DF
:104C900083828281807F7E7D7C7B7B7A7A79797842
:104CA00078787878787979797979797A7B7C7D7E6A
:104CB0007F808082838484858585858585858585BB
:104CC0008484838382828281807F7E7D7C7C7B7BE7
:104CD0007A7978777777777878787879797A7B7C4A
:104CE0007D7E7F7F7F8081828383848484858586A7
:104CF0008686858585848483838281807E7D7C7C95
:104D00007B7B7B7A79787878797979787879797911
:104D10007A7A7B7C7D7D7E7F80818283848484849B
:104D20008585868585848484848382828181807F51
:104D30007E7E7D7D7C7B7A797878787878787878D3
:104D400078797A7A7B7C7C7D7E7F7F80818182828C
:104D50008383848585868585858585858483828210
:104D600081807F7E7D7C7C7B7A7A7979797979798B
:104D70007878787979797A7A7B7B7C7D7E7F80817F
:104D800082838484858585858585858484848483E0
:104D90008382828181807F7E7D7D7C7B7B7A797836
:104DA00078777778787879797A7A7B7B7C7D7E7F63
:104DB0007F808081828283838384858585868685C2
:104DC00085858483838281807F7E7D7D7C7C7B7BE7
:104DD0007A7979797979797978787879797A7A7B41
:104DE0007C7D7E7E7F8081828384848484858585AA
:104DF000858584848484838382828180807F7E7D94
:104E00007D7C7B7A79787878787878787879797A0F
:104E10007B7B7C7C7D7E7E7F80818282828383849B
:104E20008485858585858585858483828180807F4D
:104E30007E7D7D7C7C7B7A797979797979797878CE
:104E40007979797A7A7A7B7C7D7E7F808182828390
:104E50008384848585858584848484848383828116
:104E60008180807F7E7E7D7C7B7A79797979787884
:104E700078777878797A7B7B7C7C7D7E7F7F808079
:104E800081818282838484858585858585858584E5
:104E900083838181807F7E7E7D7C7C7B7B7A7A7A36
:104EA0007A7979797979797A7A7A7A7A7B7C7D7E5E
:104EB0007F7F8081828283838484848484848483CA
:104EC000838383828281818080807F7E7D7D7C7BE5
:104ED0007A7A79797979797979797A7A7B7B7B7C35
:104EE0007D7D7E7E7F7F80808182828283848484B8
:104EF0008484848484848382828180807F7E7D7D9B
:104F00007C7C7C7B7B7A7A7A7A7A7979797A7A7AFC
:104F10007B7B7B7C7D7D7E7F80808182828383839F
:104F20008484848483838383838382828181808059
:104F30007F7E7E7D7D7C7B7A7A7A7A7979797979C0
:104F40007A7A7B7B7C7C7C7D7E7F7F7F8080818189
:104F50008182838384848484848484838383828120
:104F600080807F7F7E7D7D7C7C7B7B7B7B7B7A7A78
:104F70007A7A7A7A7A7B7B7B7B7C7C7D7E7F7F8072
:104F800080818282838383838383838383838383F8
:104F9000828181818180807F7E7D7D7C7C7B7B7A2C
:104FA0007A797979797A7A7B7B7B7B7C7C7D7E7E52
:104FB0007F7F7F7F808181828282838383838484D9
:104FC0008383838281818080807F7E7E7D7D7D7CE6
:104FD0007C7C7B7B7B7B7B7A7A7A7A7A7A7A7B7B26
:104FE0007C7D7E7E7E7F80808181828282828282C1
:104FF000828282828282828281818181807F7F7EA1
:105000007E7D7D7C7B7B7B7A7A7A7A7A7A7B7B7BEE
:105010007C7C7C7D7D7E7E7E7E7F808081818182A6
:105020008282838383838383838282818180807F62
:105030007F7E7E7E7D7D7D7C7C7C7B7B7B7B7B7BAA
:105040007B7B7B7B7B7B7C7D7D7E7E7F7F8080818D
:105050008181828282828282828282828282818134
:10506000818181807F7F7E7E7D7D7C7C7B7B7B7B65
:105070007B7B7A7B7B7B7C7C7C7C7D7D7E7E7E7E6D
:105080007F7F808081818282828283838383838306
:105090008282818180807F7F7E7E7E7D7D7D7D7C22
:1050A0007C7B7B7B7B7B7B7B7B7B7B7B7B7C7D7D4A
:1050B0007E7E7E7F808181818181818282828282E7
:1050C00082828282818181818181807F7F7E7E7EDA
:1050D0007D7C7C7B7B7B7B7B7B7B7B7B7B7B7C7C1A
:1050E0007D7D7D7D7D7E7E7F7F80808081818282CF
:1050F000838383838282828282818180807F7F7F9B
:105100007E7E7E7E7D7D7C7C7C7C7C7B7B7B7B7BDA
:105110007B7B7B7C7C7D7D7D7E7F7F8080808081B2
:105120008181828282828282828282828281818164
:105130008080807F7F7E7D7D7C7C7C7C7C7B7B7B9C
:105140007B7B7B7C7C7C7C7C7C7D7D7D7E7E7F7F95
:105150007F80808181828282828282828282828139
:1051600081818080807F7F7F7E7E7E7D7D7D7D7C56
:105170007C7B7B7B7B7B7B7B7B7B7C7C7C7D7D7E74
:105180007E7F7F8080808181818181818182828216
:10519000828282828181818180807F7F7E7E7D7D0F
:1051A0007C7C7C7B7B7B7B7B7B7B7C7B7C7C7C7C47
:1051B0007D7D7D7D7E7E7F7F7F80808182828282F9
:1051C0008283828282828181818080807F7F7F7FD3
:1051D0007E7E7D7D7D7D7C7C7B7B7B7B7B7B7B7B0F
:1051E0007B7C7C7C7D7D7E7F7F7F808080808181D9
:1051F0008181818182828282828282828181818098
:10520000807F7F7E7D7D7C7C7C7C7C7B7B7B7B7CD4
:105210007C7C7C7C7C7C7C00000000240027002AB5
:105220000000000000250028002B000000000023E3
:1052300000260029000404040404040404020202F9
:1052400002020203030303030301020408102040C7
:105250008001020408102001020408102000000050
:105260000800020100000304070000000000000025
:105270000000533911241FBECFEFD8E0DEBFCDBFF1
:1052800011E0A0E0B1E0EEE2F6E702C005900D9279
:10529000A231B107D9F726E0A2E1B1E001C01D9229
:1052A000AD33B207E1F719E2CAE3D9E204C02197AE
:1052B000FE010E940F3BC933D107C9F70E94243178
:1052C0000C94153B0C940000833081F028F481305D
:1052D00099F08230A9F008958730A9F08830C9F09C
:1052E0008430B1F4809180008F7D03C08091800074
:1052F0008F7780938000089584B58F7784BD08955B
:1053000084B58F7DFBCF8091B0008F778093B00004
:1053100008958091B0008F7DF9CFCF93DF93282F30
:1053200030E0F901E35AFD4A8491F901E75BFD4A57
:10533000D491F901EB5CFD4AC491CC23A1F0811119
:105340000E946429EC2FF0E0EE0FFF1FE55DFD4A9F
:10535000A591B491EC91ED2381E090E009F480E017
:10536000DF91CF91089580E090E0FACF1F93CF9323
:10537000DF93282F30E0F901E35AFD4A8491F901C7
:10538000E75BFD4AD491F901EB5CFD4AC491CC2363
:10539000A9F0162F81110E946429EC2FF0E0EE0F86
:1053A000FF1FEF5DFD4AA591B4918FB7F894EC9182
:1053B000111108C0D095DE23DC938FBFDF91CF9110
:1053C0001F910895DE2BF8CFCF93DF9390E0FC017F
:1053D000E75BFD4A24918B5C9D4AFC018491882304
:1053E000D1F090E0880F991FFC01E95EFD4AA5917C
:1053F000B491FC01EF5DFD4AC591D49161110EC0DD
:105400009FB7F8948C91E22FE0958E238C9328819E
:10541000E223E8839FBFDF91CF9108958FB7F8947F
:10542000EC91E22BEC938FBFF6CF1F93CF93DF93DA
:10543000182FEB0161E00E94E429209739F460E025
:10544000812FDF91CF911F910C94B629E12FF0E0CD
:10545000E35AFD4AE491E33011F148F4E130B9F048
:10546000E23069F784B5806284BDC8BD14C0E730FE
:1054700001F1E83031F1E43011F780918000806271
:1054800080938000D0938B00C0938A0004C084B5C1
:10549000806884BDC7BDDF91CF911F910895809131
:1054A0008000806880938000D0938900C09388003A
:1054B000F2CF8091B00080688093B000C093B300B9
:1054C000EACF8091B00080628093B000C093B400B6
:1054D000E2CF806480937C0080917A008064809326
:1054E0007A0080917A0086FDFCCF809178009091BF
:1054F000790008952FB7F8946091390670913A06B3
:1055000080913B0690913C062FBF0895FC01868553
:10551000882319F081E09485911180E00895CF925D
:10552000DF92EF92FF920F931F93CF93DF93EC01E3
:105530008D850E948D29182F8C85181759F10E948E
:105540007A2AC880D980EA80FB806C197D098E098F
:105550009F09CC80DD80EE80FF806C157D058E0577
:105560009F05C0F00E947A2A688379838A839B838F
:105570001C87188619861A861B8681E08E8781E033
:1055800090E0DF91CF911F910F91FF90EF90DF900E
:10559000CF90089588859985AA85BB85892B8A2B0C
:1055A0008B2BD1F00E947A2A088119812A813B81B4
:1055B000601B710B820B930B088519852A853B852F
:1055C000601771078207930738F00E947A2A688370
:1055D00079838A839B83CDCF1E8690E080E0D1CFF4
:1055E000CF93CFB7F89480913E01811127C0EFE3AC
:1055F000F2E58491E3E5F2E59491E82FF0E0EE0F17
:10560000FF1FE95EFD4AA591B491EC91E92321F4D5
:1056100061E08AE00E94B62961E08AE00E94E42904
:105620008CB580618CBD8CB580648CBD61E08DE0F3
:105630000E94E42961E08BE00E94E42980913E0110
:105640008F5F80933E01CFBFCF910895CF92DF92BD
:10565000EF92FF920F931F93CF93DF93A0911201CC
:10566000B0911301009114011091150150E040E038
:10567000EE24E394F12CC82FD0E0CD01840F951FC8
:10568000FC0123E0F695E7952A95E1F7E00FF11F7D
:1056900087709927970101C0220F8A95EAF79081B8
:1056A0006E01042E02C0D594C7940A94E2F7C0FE9E
:1056B00018C0292B20834F5F5F4F4617F0F21196D9
:1056C00061506A0F7B2F711D70931301609312015B
:1056D000DF91CF911F910F91FF90EF90DF90CF90CE
:1056E000089520952923E6CF0F931F93CF93DF933F
:1056F000982F009114011091150120911201309101
:10570000130150E040E080E0C1E0D0E0F901E40F97
:10571000F51FBF01A3E076956795AA95E1F7600FA5
:10572000711FDB016C9170E0E770FF2702C0759577
:105730006795EA95E2F760FF07C0BE01042E01C03D
:10574000660F0A94EAF7862B4F5F5F4F4917F0F216
:105750002F5F3F4F9150290F311D3093130120933C
:105760001201DF91CF911F910F9108950F931F9315
:10577000CF93DF939093150180931401109213013E
:1057800010921201C9EBD4E081E00E94742B89933E
:1057900025E0C933D207C1F7C8E3D4E081E00E9415
:1057A000742B899384E0C83BD807C1F7C7EBD3E0DB
:1057B00081E00E94742B899324E0C733D207C1F79C
:1057C000CAE3D5E00AEB15E081E00E94742B8993CF
:1057D0000C171D07C9F7C7E6D2E007E613E085E01E
:1057E0000E94742B20E1829FC0011124409689936E
:1057F00099930C171D0799F7C7E6D1E007E612E069
:1058000085E00E94742B20E1829FC0011124409604
:10581000899399930C171D0799F7DF91CF911F91E9
:105820000F9108952FB7F89460913A0170913B0160
:1058300080913C0190913D012FBF0895BF92CF927E
:10584000DF92EF92FF920F931F93CF93DF93CDB729
:10585000DEB7C05ED1090FB6F894DEBF0FBECDBF74
:10586000B82ECE0101967C0190931501809314010E
:10587000109213011092120109EB14E0F8018191CA
:105880008F0161E081700E94262BF5E009331F072C
:10589000A9F708E314E0F80181918F0161E08170BC
:1058A0000E94262BF4E0083B1F07A9F707EB13E043
:1058B00067E3C62E64E0D62EF80181918F0161E086
:1058C00081700E94262BC016D106B1F70AE315E0BD
:1058D000F80181918F0161E081700E94262BF5E033
:1058E0000A3B1F07A9F757E6C52E52E0D52E07E65B
:1058F00013E0F601819191916F01409797FF02C0EB
:1059000090E080E044E0959587954A95E1F78032F4
:1059100008F08FE165E00E94262B0C151D0549F764
:1059200007E611E037E6C32E32E0D32EF80181916D
:1059300091918F01409797FF02C090E080E024E0B2
:10594000959587952A95E1F7803208F08FE165E01B
:105950000E94262BC016D10649F7F0EEBF9EB0017B
:1059600011246E5F7F4F40EE50E0C7010E94843AE1
:10597000C052DF4F0FB6F894DEBF0FBECDBFDF9130
:10598000CF911F910F91FF90EF90DF90CF90BF903C
:1059900008951F920F920FB60F9211242F933F93E9
:1059A0008F939F93AF93BF938091390690913A065E
:1059B000A0913B06B0913C063091380623E0230FBE
:1059C0002D3758F50196A11DB11D209338068093FF
:1059D000390690933A06A0933B06B0933C0680911B
:1059E000340690913506A0913606B091370601969F
:1059F000A11DB11D8093340690933506A093360601
:105A0000B0933706BF91AF919F918F913F912F91A6
:105A10000F900FBE0F901F90189526E8230F029647
:105A2000A11DB11DD2CF1F920F920FB60F9211245C
:105A3000CF92DF92EF92FF922F933F934F935F931A
:105A40006F937F938F939F93AF93BF93CF93DF9386
:105A5000EF93FF9382E38093B30080913A0190919A
:105A60003B01A0913C01B0913D018058964EAF4F53
:105A7000BF4F80933A0190933B01A0933C01B093B8
:105A80003D0180910001811122C3E0915501F09107
:105A900056018091380190913901E80FF91FEE50BD
:105AA000FC4FE491EF57FF0BF0933701E093360181
:105AB000E0915901F0915A018091340190913501A2
:105AC000E80FF91FEE50FC4FE491EF57FF0BF093F6
:105AD0003301E09332012091510130915201E09164
